{
  "contractName": "Marketplace",
  "abi": [
    {
      "inputs": [],
      "stateMutability": "nonpayable",
      "type": "constructor"
    },
    {
      "anonymous": false,
      "inputs": [
        {
          "indexed": false,
          "internalType": "uint256",
          "name": "id",
          "type": "uint256"
        },
        {
          "indexed": false,
          "internalType": "string",
          "name": "content",
          "type": "string"
        },
        {
          "indexed": false,
          "internalType": "string",
          "name": "mediaHash",
          "type": "string"
        },
        {
          "indexed": false,
          "internalType": "uint256",
          "name": "tip",
          "type": "uint256"
        },
        {
          "indexed": false,
          "internalType": "address",
          "name": "user",
          "type": "address"
        }
      ],
      "name": "PostCreated",
      "type": "event"
    },
    {
      "inputs": [],
      "name": "name",
      "outputs": [
        {
          "internalType": "string",
          "name": "",
          "type": "string"
        }
      ],
      "stateMutability": "view",
      "type": "function"
    },
    {
      "inputs": [],
      "name": "postCount",
      "outputs": [
        {
          "internalType": "uint256",
          "name": "",
          "type": "uint256"
        }
      ],
      "stateMutability": "view",
      "type": "function"
    },
    {
      "inputs": [
        {
          "internalType": "uint256",
          "name": "",
          "type": "uint256"
        }
      ],
      "name": "posts",
      "outputs": [
        {
          "internalType": "uint256",
          "name": "id",
          "type": "uint256"
        },
        {
          "internalType": "string",
          "name": "content",
          "type": "string"
        },
        {
          "internalType": "string",
          "name": "mediaHash",
          "type": "string"
        },
        {
          "internalType": "uint256",
          "name": "tip",
          "type": "uint256"
        },
        {
          "internalType": "address",
          "name": "user",
          "type": "address"
        }
      ],
      "stateMutability": "view",
      "type": "function"
    },
    {
      "inputs": [
        {
          "internalType": "string",
          "name": "_content",
          "type": "string"
        },
        {
          "internalType": "string",
          "name": "_mediaHash",
          "type": "string"
        },
        {
          "internalType": "uint256",
          "name": "_tip",
          "type": "uint256"
        }
      ],
      "name": "createPost",
      "outputs": [],
      "stateMutability": "nonpayable",
      "type": "function"
    }
  ],
  "bytecode": "0x6080604052600060015534801561001557600080fd5b506040518060400160405280601e81526020017f416e20457468657269756d20626173656420536f6369616c204d65646961000081525060009080519060200190610061929190610067565b5061016b565b82805461007390610139565b90600052602060002090601f01602090048101928261009557600085556100dc565b82601f106100ae57805160ff19168380011785556100dc565b828001600101855582156100dc579182015b828111156100db5782518255916020019190600101906100c0565b5b5090506100e991906100ed565b5090565b5b808211156101065760008160009055506001016100ee565b5090565b7f4e487b7100000000000000000000000000000000000000000000000000000000600052602260045260246000fd5b6000600282049050600182168061015157607f821691505b602082108114156101655761016461010a565b5b50919050565b6109ba8061017a6000396000f3fe608060405234801561001057600080fd5b506004361061004c5760003560e01c806306fdde03146100515780630b1e7f831461006f57806317906c2e146100a3578063742d931a146100c1575b600080fd5b6100596100dd565b6040516100669190610586565b60405180910390f35b610089600480360381019061008491906105f2565b61016b565b60405161009a95949392919061066f565b60405180910390f35b6100ab6102d1565b6040516100b891906106d0565b60405180910390f35b6100db60048036038101906100d69190610820565b6102d7565b005b600080546100ea906108da565b80601f0160208091040260200160405190810160405280929190818152602001828054610116906108da565b80156101635780601f1061013857610100808354040283529160200191610163565b820191906000526020600020905b81548152906001019060200180831161014657829003601f168201915b505050505081565b6002602052806000526040600020600091509050806000015490806001018054610194906108da565b80601f01602080910402602001604051908101604052809291908181526020018280546101c0906108da565b801561020d5780601f106101e25761010080835404028352916020019161020d565b820191906000526020600020905b8154815290600101906020018083116101f057829003601f168201915b505050505090806002018054610222906108da565b80601f016020809104026020016040519081016040528092919081815260200182805461024e906108da565b801561029b5780601f106102705761010080835404028352916020019161029b565b820191906000526020600020905b81548152906001019060200180831161027e57829003601f168201915b5050505050908060030154908060040160009054906101000a900473ffffffffffffffffffffffffffffffffffffffff16905085565b60015481565b60008351116102e557600080fd5b60008251116102f357600080fd5b6000811161030057600080fd5b600160008154809291906103139061093b565b91905055506040518060a0016040528060015481526020018481526020018381526020018281526020013373ffffffffffffffffffffffffffffffffffffffff1681525060026000600154815260200190815260200160002060008201518160000155602082015181600101908051906020019061039292919061044a565b5060408201518160020190805190602001906103af92919061044a565b506060820151816003015560808201518160040160006101000a81548173ffffffffffffffffffffffffffffffffffffffff021916908373ffffffffffffffffffffffffffffffffffffffff1602179055509050507f0e2769bd597cd7048e25b64a846e1254d4cb84b13c4aba4ad4a891baf7a399c66001548484843360405161043d95949392919061066f565b60405180910390a1505050565b828054610456906108da565b90600052602060002090601f01602090048101928261047857600085556104bf565b82601f1061049157805160ff19168380011785556104bf565b828001600101855582156104bf579182015b828111156104be5782518255916020019190600101906104a3565b5b5090506104cc91906104d0565b5090565b5b808211156104e95760008160009055506001016104d1565b5090565b600081519050919050565b600082825260208201905092915050565b60005b8381101561052757808201518184015260208101905061050c565b83811115610536576000848401525b50505050565b6000601f19601f8301169050919050565b6000610558826104ed565b61056281856104f8565b9350610572818560208601610509565b61057b8161053c565b840191505092915050565b600060208201905081810360008301526105a0818461054d565b905092915050565b6000604051905090565b600080fd5b600080fd5b6000819050919050565b6105cf816105bc565b81146105da57600080fd5b50565b6000813590506105ec816105c6565b92915050565b600060208284031215610608576106076105b2565b5b6000610616848285016105dd565b91505092915050565b610628816105bc565b82525050565b600073ffffffffffffffffffffffffffffffffffffffff82169050919050565b60006106598261062e565b9050919050565b6106698161064e565b82525050565b600060a082019050610684600083018861061f565b8181036020830152610696818761054d565b905081810360408301526106aa818661054d565b90506106b9606083018561061f565b6106c66080830184610660565b9695505050505050565b60006020820190506106e5600083018461061f565b92915050565b600080fd5b600080fd5b7f4e487b7100000000000000000000000000000000000000000000000000000000600052604160045260246000fd5b61072d8261053c565b810181811067ffffffffffffffff8211171561074c5761074b6106f5565b5b80604052505050565b600061075f6105a8565b905061076b8282610724565b919050565b600067ffffffffffffffff82111561078b5761078a6106f5565b5b6107948261053c565b9050602081019050919050565b82818337600083830152505050565b60006107c36107be84610770565b610755565b9050828152602081018484840111156107df576107de6106f0565b5b6107ea8482856107a1565b509392505050565b600082601f830112610807576108066106eb565b5b81356108178482602086016107b0565b91505092915050565b600080600060608486031215610839576108386105b2565b5b600084013567ffffffffffffffff811115610857576108566105b7565b5b610863868287016107f2565b935050602084013567ffffffffffffffff811115610884576108836105b7565b5b610890868287016107f2565b92505060406108a1868287016105dd565b9150509250925092565b7f4e487b7100000000000000000000000000000000000000000000000000000000600052602260045260246000fd5b600060028204905060018216806108f257607f821691505b60208210811415610906576109056108ab565b5b50919050565b7f4e487b7100000000000000000000000000000000000000000000000000000000600052601160045260246000fd5b6000610946826105bc565b91507fffffffffffffffffffffffffffffffffffffffffffffffffffffffffffffffff8214156109795761097861090c565b5b60018201905091905056fea2646970667358221220bec8b4c2cb3be61050fd66dc3b0276bcd954eaa9f60dfcf1da9bdd7557c1770664736f6c634300080b0033",
  "immutableReferences": {},
  "source": "// SPDX-License-Identifier: MIT\npragma solidity ^0.8.0;\n\ncontract Marketplace {\n    // State variables\n    string public name;\n    uint public postCount = 0; \n\n    // Equivalent to database\n    struct Post {\n        uint id;\n        string content;\n        string mediaHash;\n        uint tip;\n        address user;\n    }\n\n    // Similar to declaring PK for adding data\n    mapping(uint => Post) public posts;\n\n    // Emit event when a product is created\n    event PostCreated(\n        uint id,\n        string content,\n        string mediaHash,\n        uint tip,\n        address user\n    );\n\n    constructor() {\n        name = \"An Etherium based Social Media\";\n    }\n\n    function createPost(string memory _content, string memory _mediaHash, uint _tip) public {\n        // Validation\n        require(bytes(_content).length > 0);\n        require(bytes(_mediaHash).length > 0);\n        require(_tip > 0);\n\n        // Update counter\n        postCount ++;\n\n        // Create a post\n        posts[postCount] = Post(postCount, _content, _mediaHash, _tip, msg.sender);\n\n        // Trigger an event (Similar to return)\n        emit PostCreated(postCount, _content, _mediaHash, _tip, msg.sender);\n    }\n\n    // function tipPost(uint _id) public payable {\n    //     // Fetch post and user\n    //     Post memory _post = posts[_id];\n    //     address _user = _post.user;\n\n    //     // Validation\n    //     require(_post.id > 0 && _post.id <= postCount); // Id is valid\n    //     require(msg.value >= _post.price); // There is enough ETH in transation\n    //     require(!_post.purchased); // Product is not purchased already\n    //     require(msg.sender != _post); // Buyer is not the owner\n\n    //     // Transfer ownership and update price\n    //     _post.owner = msg.sender;\n    //     _post.purchased = true;\n    //     _post.price = msg.value;\n\n    //     // Update the actual product in blockchain\n    //     products[_id] = _product;\n\n    //     // Pay the owner\n    //     payable(_owner).transfer(msg.value);\n\n    //     // Trigger an event\n    //     emit ProductPurchased(_id, _product.name, _product.mediaHash, _product.price, msg.sender, true, _product.collection_id);\n    // }\n\n    // function createCollection(string memory _name, string memory _mediaHash) public {\n    //     // Validation\n    //     require(bytes(_name).length > 0);\n\n    //     // Update counter\n    //     collectionCount ++;\n\n    //     // Create a collection\n    //     collections[collectionCount] = Collection(collectionCount, _name, _mediaHash, msg.sender);\n\n    //     // Trigger an event (Similar to return)\n    //     emit CollectionCreated(collectionCount, _name, _mediaHash, msg.sender);\n    // }\n}\n\n\n\n/*\nExtra Notes:\n    1) Why counter?\n    Solidity doesn't tell us how many products are in Struct. It returns empty vals if you've 5 prods and search for 6. \n\n    2) What is state/public variable?\n    Using public converts vaiable into function which can be used globally including console. More like auto increment PK.\n\n    3) Why to trigger event?\n    In Laravel, we return some value in the function. In solidity, we can trigger an event which will be passed as an argument in the callback of this function.\n\n    4) What is msg.sender?\n    It's the address of the person who calls the function i.e the one who makes the purchase with his wallet. In this case, msg. values come from metadata (msg.sender = from: buyer). \n\n    5) What is require() in a function?\n    The function will throw an exception and will stop the execution if the condition is not correct in order to save gas fee.\n\n    6) Why _ on parameters?\n    _ is just for naming convention to differentiate local variables from state variables. \n\n    7) What is Product memory _product?\n    Creates a duplicate copy of the product that exists in the blockchain and assigns it to the local variable _product. \n\n    8) What is payable?\n    Solidity can't let you transfer money or use metadata(msg) value without payable function. The variable which contains owner address also must have payable.\n\n    9) What happens ofter transfering the value?\n    Check the Ganache network. The msg.sender/from: buyer (3rd account) will lose 1 eth and owner (2nd account) will gain one.   \n*/\n\n",
  "sourcePath": "/Users/jayz/Documents/Projects/Platforms/Web Development/Personal/SocialMedia (React + Solidity + Truffle + Ganache) /socialMedia/src/contracts/SocialMedia.sol",
  "compiler": {
    "name": "solc",
    "version": "0.8.11+commit.d7f03943.Emscripten.clang"
  },
  "schemaVersion": "3.4.4",
  "updatedAt": "2022-02-02T07:15:02.172Z",
  "devdoc": {
    "kind": "dev",
    "methods": {},
    "version": 1
  },
  "userdoc": {
    "kind": "user",
    "methods": {},
    "version": 1
  }
}