{
  "contractName": "SocialMedia",
  "abi": [
    {
      "inputs": [],
      "stateMutability": "nonpayable",
      "type": "constructor"
    },
    {
      "anonymous": false,
      "inputs": [
        {
          "indexed": false,
          "internalType": "uint256",
          "name": "id",
          "type": "uint256"
        },
        {
          "indexed": false,
          "internalType": "string",
          "name": "content",
          "type": "string"
        },
        {
          "indexed": false,
          "internalType": "string",
          "name": "mediaHash",
          "type": "string"
        },
        {
          "indexed": false,
          "internalType": "uint256",
          "name": "tip",
          "type": "uint256"
        },
        {
          "indexed": false,
          "internalType": "address",
          "name": "author",
          "type": "address"
        }
      ],
      "name": "PostCreated",
      "type": "event"
    },
    {
      "anonymous": false,
      "inputs": [
        {
          "indexed": false,
          "internalType": "uint256",
          "name": "id",
          "type": "uint256"
        },
        {
          "indexed": false,
          "internalType": "string",
          "name": "content",
          "type": "string"
        },
        {
          "indexed": false,
          "internalType": "string",
          "name": "mediaHash",
          "type": "string"
        },
        {
          "indexed": false,
          "internalType": "uint256",
          "name": "tip",
          "type": "uint256"
        },
        {
          "indexed": false,
          "internalType": "address",
          "name": "author",
          "type": "address"
        }
      ],
      "name": "PostTipped",
      "type": "event"
    },
    {
      "inputs": [],
      "name": "name",
      "outputs": [
        {
          "internalType": "string",
          "name": "",
          "type": "string"
        }
      ],
      "stateMutability": "view",
      "type": "function",
      "constant": true
    },
    {
      "inputs": [],
      "name": "postCount",
      "outputs": [
        {
          "internalType": "uint256",
          "name": "",
          "type": "uint256"
        }
      ],
      "stateMutability": "view",
      "type": "function",
      "constant": true
    },
    {
      "inputs": [
        {
          "internalType": "uint256",
          "name": "",
          "type": "uint256"
        }
      ],
      "name": "posts",
      "outputs": [
        {
          "internalType": "uint256",
          "name": "id",
          "type": "uint256"
        },
        {
          "internalType": "string",
          "name": "content",
          "type": "string"
        },
        {
          "internalType": "string",
          "name": "mediaHash",
          "type": "string"
        },
        {
          "internalType": "uint256",
          "name": "tip",
          "type": "uint256"
        },
        {
          "internalType": "address",
          "name": "author",
          "type": "address"
        }
      ],
      "stateMutability": "view",
      "type": "function",
      "constant": true
    },
    {
      "inputs": [
        {
          "internalType": "string",
          "name": "_content",
          "type": "string"
        },
        {
          "internalType": "string",
          "name": "_mediaHash",
          "type": "string"
        },
        {
          "internalType": "uint256",
          "name": "_tip",
          "type": "uint256"
        }
      ],
      "name": "createPost",
      "outputs": [],
      "stateMutability": "nonpayable",
      "type": "function"
    },
    {
      "inputs": [
        {
          "internalType": "uint256",
          "name": "_id",
          "type": "uint256"
        }
      ],
      "name": "tipPost",
      "outputs": [],
      "stateMutability": "payable",
      "type": "function",
      "payable": true
    }
  ],
  "bytecode": "0x608060405260006001553480156200001657600080fd5b506040518060400160405280601e81526020017f416e20457468657269756d20626173656420536f6369616c204d65646961000081525060009080519060200190620000649291906200006b565b5062000180565b82805462000079906200014a565b90600052602060002090601f0160209004810192826200009d5760008555620000e9565b82601f10620000b857805160ff1916838001178555620000e9565b82800160010185558215620000e9579182015b82811115620000e8578251825591602001919060010190620000cb565b5b509050620000f89190620000fc565b5090565b5b8082111562000117576000816000905550600101620000fd565b5090565b7f4e487b7100000000000000000000000000000000000000000000000000000000600052602260045260246000fd5b600060028204905060018216806200016357607f821691505b602082108114156200017a57620001796200011b565b5b50919050565b610de080620001906000396000f3fe60806040526004361061004a5760003560e01c806306fdde031461004f5780630b1e7f831461007a57806317906c2e146100bb578063742d931a146100e657806374d3c1f81461010f575b600080fd5b34801561005b57600080fd5b5061006461012b565b6040516100719190610956565b60405180910390f35b34801561008657600080fd5b506100a1600480360381019061009c91906109c2565b6101b9565b6040516100b2959493929190610a3f565b60405180910390f35b3480156100c757600080fd5b506100d061031f565b6040516100dd9190610aa0565b60405180910390f35b3480156100f257600080fd5b5061010d60048036038101906101089190610bf0565b610325565b005b610129600480360381019061012491906109c2565b610498565b005b6000805461013890610caa565b80601f016020809104026020016040519081016040528092919081815260200182805461016490610caa565b80156101b15780601f10610186576101008083540402835291602001916101b1565b820191906000526020600020905b81548152906001019060200180831161019457829003601f168201915b505050505081565b60026020528060005260406000206000915090508060000154908060010180546101e290610caa565b80601f016020809104026020016040519081016040528092919081815260200182805461020e90610caa565b801561025b5780601f106102305761010080835404028352916020019161025b565b820191906000526020600020905b81548152906001019060200180831161023e57829003601f168201915b50505050509080600201805461027090610caa565b80601f016020809104026020016040519081016040528092919081815260200182805461029c90610caa565b80156102e95780601f106102be576101008083540402835291602001916102e9565b820191906000526020600020905b8154815290600101906020018083116102cc57829003601f168201915b5050505050908060030154908060040160009054906101000a900473ffffffffffffffffffffffffffffffffffffffff16905085565b60015481565b600083511161033357600080fd5b600082511161034157600080fd5b6000811161034e57600080fd5b6001600081548092919061036190610d0b565b91905055506040518060a0016040528060015481526020018481526020018381526020018281526020013373ffffffffffffffffffffffffffffffffffffffff168152506002600060015481526020019081526020016000206000820151816000015560208201518160010190805190602001906103e092919061081a565b5060408201518160020190805190602001906103fd92919061081a565b506060820151816003015560808201518160040160006101000a81548173ffffffffffffffffffffffffffffffffffffffff021916908373ffffffffffffffffffffffffffffffffffffffff1602179055509050507f0e2769bd597cd7048e25b64a846e1254d4cb84b13c4aba4ad4a891baf7a399c66001548484843360405161048b959493929190610a3f565b60405180910390a1505050565b6000600260008381526020019081526020016000206040518060a0016040529081600082015481526020016001820180546104d290610caa565b80601f01602080910402602001604051908101604052809291908181526020018280546104fe90610caa565b801561054b5780601f106105205761010080835404028352916020019161054b565b820191906000526020600020905b81548152906001019060200180831161052e57829003601f168201915b5050505050815260200160028201805461056490610caa565b80601f016020809104026020016040519081016040528092919081815260200182805461059090610caa565b80156105dd5780601f106105b2576101008083540402835291602001916105dd565b820191906000526020600020905b8154815290600101906020018083116105c057829003601f168201915b50505050508152602001600382015481526020016004820160009054906101000a900473ffffffffffffffffffffffffffffffffffffffff1673ffffffffffffffffffffffffffffffffffffffff1673ffffffffffffffffffffffffffffffffffffffff16815250509050600081600001511180156106625750600154816000015111155b61066b57600080fd5b6000341161067857600080fd5b806080015173ffffffffffffffffffffffffffffffffffffffff163373ffffffffffffffffffffffffffffffffffffffff1614156106b557600080fd5b3481606001516106c59190610d54565b816060018181525050806002600084815260200190815260200160002060008201518160000155602082015181600101908051906020019061070892919061081a565b50604082015181600201908051906020019061072592919061081a565b506060820151816003015560808201518160040160006101000a81548173ffffffffffffffffffffffffffffffffffffffff021916908373ffffffffffffffffffffffffffffffffffffffff160217905550905050806080015173ffffffffffffffffffffffffffffffffffffffff166108fc349081150290604051600060405180830381858888f193505050501580156107c4573d6000803e3d6000fd5b507f8cdd31fc6bd9c789638fdbd3ed5c788b27fa5d287f300e92f3c436ba03527db3600154826020015183604001518460600151856080015160405161080e959493929190610a3f565b60405180910390a15050565b82805461082690610caa565b90600052602060002090601f016020900481019282610848576000855561088f565b82601f1061086157805160ff191683800117855561088f565b8280016001018555821561088f579182015b8281111561088e578251825591602001919060010190610873565b5b50905061089c91906108a0565b5090565b5b808211156108b95760008160009055506001016108a1565b5090565b600081519050919050565b600082825260208201905092915050565b60005b838110156108f75780820151818401526020810190506108dc565b83811115610906576000848401525b50505050565b6000601f19601f8301169050919050565b6000610928826108bd565b61093281856108c8565b93506109428185602086016108d9565b61094b8161090c565b840191505092915050565b60006020820190508181036000830152610970818461091d565b905092915050565b6000604051905090565b600080fd5b600080fd5b6000819050919050565b61099f8161098c565b81146109aa57600080fd5b50565b6000813590506109bc81610996565b92915050565b6000602082840312156109d8576109d7610982565b5b60006109e6848285016109ad565b91505092915050565b6109f88161098c565b82525050565b600073ffffffffffffffffffffffffffffffffffffffff82169050919050565b6000610a29826109fe565b9050919050565b610a3981610a1e565b82525050565b600060a082019050610a5460008301886109ef565b8181036020830152610a66818761091d565b90508181036040830152610a7a818661091d565b9050610a8960608301856109ef565b610a966080830184610a30565b9695505050505050565b6000602082019050610ab560008301846109ef565b92915050565b600080fd5b600080fd5b7f4e487b7100000000000000000000000000000000000000000000000000000000600052604160045260246000fd5b610afd8261090c565b810181811067ffffffffffffffff82111715610b1c57610b1b610ac5565b5b80604052505050565b6000610b2f610978565b9050610b3b8282610af4565b919050565b600067ffffffffffffffff821115610b5b57610b5a610ac5565b5b610b648261090c565b9050602081019050919050565b82818337600083830152505050565b6000610b93610b8e84610b40565b610b25565b905082815260208101848484011115610baf57610bae610ac0565b5b610bba848285610b71565b509392505050565b600082601f830112610bd757610bd6610abb565b5b8135610be7848260208601610b80565b91505092915050565b600080600060608486031215610c0957610c08610982565b5b600084013567ffffffffffffffff811115610c2757610c26610987565b5b610c3386828701610bc2565b935050602084013567ffffffffffffffff811115610c5457610c53610987565b5b610c6086828701610bc2565b9250506040610c71868287016109ad565b9150509250925092565b7f4e487b7100000000000000000000000000000000000000000000000000000000600052602260045260246000fd5b60006002820490506001821680610cc257607f821691505b60208210811415610cd657610cd5610c7b565b5b50919050565b7f4e487b7100000000000000000000000000000000000000000000000000000000600052601160045260246000fd5b6000610d168261098c565b91507fffffffffffffffffffffffffffffffffffffffffffffffffffffffffffffffff821415610d4957610d48610cdc565b5b600182019050919050565b6000610d5f8261098c565b9150610d6a8361098c565b9250827fffffffffffffffffffffffffffffffffffffffffffffffffffffffffffffffff03821115610d9f57610d9e610cdc565b5b82820190509291505056fea26469706673582212205c933e3a842c34cfd8e8ff2722e484e36e5485b2982f249fffcd857a91bfce7e64736f6c634300080b0033",
  "immutableReferences": {},
  "source": "// SPDX-License-Identifier: MIT\npragma solidity ^0.8.0;\n\ncontract SocialMedia {\n    // State variables\n    string public name;\n    uint public postCount = 0; \n\n    // Equivalent to database\n    struct Post {\n        uint id;\n        string content;\n        string mediaHash;\n        uint tip;\n        address author;\n    }\n\n    // Similar to declaring PK for adding data\n    mapping(uint => Post) public posts;\n\n    // Emit event when a post is created\n    event PostCreated(\n        uint id,\n        string content,\n        string mediaHash,\n        uint tip,\n        address author\n    );\n\n    // Emit event when a post gets tipped\n    event PostTipped(\n        uint id,\n        string content,\n        string mediaHash,\n        uint tip,\n        address author\n    );\n\n    constructor() {\n        name = \"An Etherium based Social Media\";\n    }\n\n    function createPost(string memory _content, string memory _mediaHash, uint _tip) public {\n        // Validation\n        require(bytes(_content).length > 0);\n        require(bytes(_mediaHash).length > 0);\n        require(_tip > 0);\n\n        // Update counter\n        postCount ++;\n\n        // Create a post\n        posts[postCount] = Post(postCount, _content, _mediaHash, _tip, msg.sender);\n\n        // Trigger an event (Similar to return)\n        emit PostCreated(postCount, _content, _mediaHash, _tip, msg.sender);\n    }\n\n    function tipPost(uint _id) public payable {\n        // Fetch post and author\n        Post memory _post = posts[_id];\n\n        // Validation\n        require(_post.id > 0 && _post.id <= postCount); // Id is valid\n        require(msg.value > 0); // There is enough ETH in transation\n        require(msg.sender != _post.author); // Reader is not the author\n\n        // Add new tip to the post\n        _post.tip = _post.tip + msg.value;\n\n        // Update the actual product in blockchain\n        posts[_id] = _post;\n\n        // Pay the author\n        payable(_post.author).transfer(msg.value);\n\n        // Trigger an event\n        emit PostTipped(postCount, _post.content, _post.mediaHash, _post.tip, _post.author);\n    }\n}\n\n\n\n/*\nExtra Notes:\n    1) Why counter?\n    Solidity doesn't tell us how many products are in Struct. It returns empty vals if you've 5 prods and search for 6. \n\n    2) What is state/public variable?\n    Using public converts vaiable into function which can be used globally including console. More like auto increment PK.\n\n    3) Why to trigger event?\n    In Laravel, we return some value in the function. In solidity, we can trigger an event which will be passed as an argument in the callback of this function.\n\n    4) What is msg.sender?\n    It's the address of the person who calls the function i.e the one who makes the purchase with his wallet. In this case, msg. values come from metadata (msg.sender = from: buyer). \n\n    5) What is require() in a function?\n    The function will throw an exception and will stop the execution if the condition is not correct in order to save gas fee.\n\n    6) Why _ on parameters?\n    _ is just for naming convention to differentiate local variables from state variables. \n\n    7) What is Product memory _product?\n    Creates a duplicate copy of the product that exists in the blockchain and assigns it to the local variable _product. \n\n    8) What is payable?\n    Solidity can't let you transfer money or use metadata(msg) value without payable function. The variable which contains owner address also must have payable.\n\n    9) What happens ofter transfering the value?\n    Check the Ganache network. The msg.sender/from: buyer (3rd account) will lose 1 eth and owner (2nd account) will gain one.   \n*/\n\n",
  "sourcePath": "/Users/jayz/Documents/Projects/Platforms/Web Development/Personal/SocialMedia (React + Solidity + Truffle + Ganache) /socialMedia/src/contracts/SocialMedia.sol",
  "compiler": {
    "name": "solc",
    "version": "0.8.11+commit.d7f03943.Emscripten.clang"
  },
  "schemaVersion": "3.4.4",
  "updatedAt": "2022-02-02T08:05:31.763Z",
  "networkType": "ethereum",
  "devdoc": {
    "kind": "dev",
    "methods": {},
    "version": 1
  },
  "userdoc": {
    "kind": "user",
    "methods": {},
    "version": 1
  }
}